:100000000C9434000C9451000C9451000C94510049
:100010000C9451000C9451000C9451000C9451001C
:100020000C9451000C9451000C9451000C9451000C
:100030000C9451000C9451000C94AA010C945100A2
:100040000C9451000C9451000C9451000C945100EC
:100050000C9451000C9451000C9451000C945100DC
:100060000C9451000C94510011241FBECFEFD8E026
:10007000DEBFCDBF11E0A0E0B1E0E4E6F8E002C0F1
:1000800005900D92AE31B107D9F721E0AEE1B1E0B4
:1000900001C01D92AE32B207E1F70E9453000C94EA
:1000A00030040C9400000F931F93CF93DF93CDB7D0
:1000B000DEB784E290E02FEFFC01208384E490E03F
:1000C00024E430E0F90120812260FC01208385E4F2
:1000D00090E025E0FC01208307E410E082E00E942C
:1000E0008200F80180838EE690E02EE630E0F90190
:1000F00020812260FC01208378940E948E010E945E
:100100000101FDCFCF93DF9300D000D01F92CDB778
:10011000DEB78D838D81482F50E028EE33E0429F7B
:10012000C001439F900D529F900D11249A838983A3
:1001300080E48B838B81282F30E089819A81B901FB
:100140000E944903CB018C838C810F900F900F90FC
:100150000F900F90DF91CF910895CF93DF93CDB79C
:10016000DEB785EC90E0FC01108284EC90E024E1A5
:10017000FC01208382EC90E026E0FC01208381ECEE
:1001800090E028E0FC0120830000DF91CF910895EA
:10019000CF93DF931F92CDB7DEB7898380EC90E0D9
:1001A000FC018081882F90E080729927892BB1F320
:1001B00086EC90E02981FC01208300000F90DF9104
:1001C000CF910895CF93DF9300D0CDB7DEB79A8358
:1001D00089830BC089819A819C012F5F3F4F3A83AD
:1001E0002983FC0180810E94C80089819A81FC01D9
:1001F0008081882379F700000F900F90DF91CF91D5
:100200000895CF93DF93CDB7DEB780911F01882F7C
:1002100090E081309105C9F0823091051CF4892B62
:1002200041F061C08230910579F1039709F443C030
:100230005AC00E94AD0040E060E088EC90E00E946F
:10024000D60281E00E9477014EC080E00E94C30286
:10025000882309F443C084E690E024E630E0F90105
:1002600020812062FC01208384E091E00E94E20072
:1002700080E00E94F90260E082E390E00E94770251
:1002800082E00E9477012AC080E00E94C302882396
:1002900039F184E690E024E630E0F9012081206223
:1002A000FC01208360E08CE390E00E94770283E011
:1002B0000E94770115C080E00E94C302882391F05C
:1002C00084E690E024E630E0F90120812062FC0120
:1002D000208384E191E00E94E20004C0000003C09A
:1002E000000001C000000000DF91CF910895CF937E
:1002F000DF931F92CDB7DEB78983898180931F0179
:1003000000000F90DF91CF910895CF93DF93CDB789
:10031000DEB780911F01DF91CF910895CF93DF93D6
:10032000CDB7DEB785E291E090932D0180932C014B
:100330001092250110922A01109227011092260195
:10034000109229011092280110922B010000DF91D8
:10035000CF9108951F920F9200905F000F92112489
:100360002F933F934F935F938F939F93EF93FF93BD
:10037000CF93DF93CDB7DEB780912501882F90E032
:100380000097D9F00197C1F585E290E020912B010B
:10039000422F50E028E030E002C0359527954A957D
:1003A000E2F7FC01208380912601909127010196BC
:1003B00090932701809326011FC085E290E0209151
:1003C0002B01422F50E021E030E002C0220F331F0A
:1003D0004A95E2F7FC012083809126019091270144
:1003E000892B49F0809126019091270101979093E4
:1003F000270180932601000080912B01833030F487
:1004000080912B018F5F80932B0102C010922B01F2
:100410008091280190912901892B51F08091280128
:10042000909129010197909329018093280103C09D
:1004300081E080932A010000DF91CF91FF91EF913D
:100440009F918F915F914F913F912F910F900092CB
:100450005F000F901F901895CF93DF93CDB7DEB755
:1004600027970FB6F894DEBF0FBECDBF9C838B835A
:100470007E836D834F838B819C812F81FC01208340
:100480008D819E8144E6489F9001499F300D112443
:10049000A1EFB0EF0E947103929582958F7089272A
:1004A0009F7089279A83898329813A81C901880F9E
:1004B000991F820F931F9A8389838B819C81298145
:1004C0003A81FC013483238384E690E024E630E023
:1004D000F90120812F7DFC012083000027960FB6B3
:1004E000F894DEBF0FBECDBFDF91CF910895CF93BB
:1004F000DF9300D000D000D0CDB7DEB79D838C83D2
:100500006E838E81882F90E0892B09F032C0109283
:100510002A0120912601309127018C819D81281785
:10052000390778F481E08B8380912601909127012F
:100530002C813D81A901481B590BCA019A838983EB
:100540000DC01B8220912601309127018C819D8155
:10055000A901481B590BCA019A83898380912C01F8
:1005600090912D0129813A814B81B9010E942C0281
:100570000000000026960FB6F894DEBF0FBECDBF78
:10058000DF91CF910895CF93DF931F92CDB7DEB760
:1005900089838981882F90E0892B19F480912A0121
:1005A00001C080E00F90DF91CF910895CF93DF934A
:1005B00000D000D0CDB7DEB79A8389836B834C839C
:1005C0008C81882F90E0892B09F00BC080912C0141
:1005D00090912D0129813A814B81B9010E942C0211
:1005E000000000000F900F900F900F90DF91CF91BF
:1005F0000895CF93DF931F92CDB7DEB789838981AA
:10060000882F90E0892B09F005C0109227011092E5
:100610002601000000000F90DF91CF910895CF9345
:10062000DF931F92CDB7DEB789838981882F90E051
:10063000892B09F003C010922A01000000000F90DE
:10064000DF91CF910895CF93DF931F92CDB7DEB79F
:10065000898380912601909127010F90DF91CF919E
:100660000895CF93DF9300D01F92CDB7DEB78B8371
:100670000E94CC0324E630E0B9010E945D039A8316
:10068000898389819A810F900F900F90DF91CF918C
:100690000895AA1BBB1B51E107C0AA1FBB1FA617C9
:1006A000B70710F0A61BB70B881F991F5A95A9F71B
:1006B00080959095BC01CD01089597FB072E16F407
:1006C000009407D077FD09D00E94490307FC05D0AC
:1006D0003EF4909581959F4F0895709561957F4F59
:1006E0000895A29FB001B39FC001A39F700D811D0B
:1006F0001124911DB29F700D811D1124911D08952B
:100700008F929F92AF92BF92CF92DF92EF92FF9221
:10071000CF93DF93EC01688179818A819B81611598
:1007200071058105910521F464E279ED8BE597E08F
:100730002DE133EF41E050E00E94DC0349015A0112
:100740009B01AC01A7EAB1E40E94FB036B017C01B1
:10075000ACEEB4EFA50194010E940904DC01CB01C9
:100760008C0D9D1DAE1DBF1DB7FF03C00197A109D4
:10077000B04888839983AA83BB839F77DF91CF9109
:10078000FF90EF90DF90CF90BF90AF909F908F90B1
:1007900008950E948003089580E091E00E94800304
:1007A0000895A0E0B0E08093000190930101A09330
:1007B0000201B09303010895052E97FB1EF40094E7
:1007C0000E94F30357FD07D00E940E0407FC03D0DC
:1007D0004EF40C94F30350954095309521953F4F7E
:1007E0004F4F5F4F089590958095709561957F4F1D
:1007F0008F4F9F4F08950E947103A59F900DB49F46
:10080000900DA49F800D911D11240895B7FF0C94A5
:10081000FB030E94FB03821B930B0895A1E21A2E97
:10082000AA1BBB1BFD010DC0AA1FBB1FEE1FFF1F94
:10083000A217B307E407F50720F0A21BB30BE40BE4
:10084000F50B661F771F881F991F1A9469F760952B
:100850007095809590959B01AC01BD01CF010895E5
:04086000F894FFCF3A
:10086400010000007265616368656420706F732025
:0E087400302F6E0069646C696E672F6E000095
:00000001FF
