:100000000C9434000C9446000C9446000C9446006A
:100010000C9446000C9446000C9446000C94460048
:100020000C9446000C9446000C9446000C94460038
:100030000C9446000C9446000C94F5000C94460079
:100040000C9446000C9446000C9446000C94460018
:100050000C9446000C9446000C9446000C94460008
:100060000C9446000C94460011241FBECFEFD8E03C
:10007000DEBFCDBF21E0A0E0B1E001C01D92A03104
:10008000B207E1F70E9448000C94CE010C940000E6
:100090000F931F93CF93DF93CDB7DEB782E091E04C
:1000A00090930D0180930C011092020110920701B0
:1000B00010920401109203011092060110920501A2
:1000C0001092080184E290E02FEFFC01208384E489
:1000D00090E024E430E0F90120812260FC012083DB
:1000E00085E490E025E0FC01208307E410E082E055
:1000F0000E945B01F80180838EE690E02EE630E0FE
:10010000F90120812260FC01208378940E94A201E1
:10011000882359F420E045E060E570E082E091E05A
:100120000E94A90082E00E9494010E94A2018230F4
:1001300069F78091050190910601892B39F784E6D2
:1001400090E024E630E0F90120812062FC01208368
:10015000DDCFCF93DF93CDB7DEB728970FB6F894F6
:10016000DEBF0FBECDBF9C838B837E836D834F83A9
:1001700028878B819C812885FC0120838D819E812D
:1001800044E6489F9001499F300D1124A1EFB0EF44
:100190000E94BF01929582958F7089279F70892751
:1001A0009A83898329813A81C901880F991F820F17
:1001B000931F9A8389838B819C8129813A81FC01D9
:1001C0003483238384E690E024E630E0F901208143
:1001D0002F7DFC012083000028960FB6F894DEBF27
:1001E0000FBECDBFDF91CF9108951F920F92009067
:1001F0005F000F9211242F933F934F935F938F9340
:100200009F93EF93FF93CF93DF93CDB7DEB78091AA
:100210000201882F90E0009791F0019701F585E2A7
:1002200090E020910801422F50E028E030E002C029
:10023000359527954A95E2F7FC01208310C085E2A9
:1002400090E020910801422F50E021E030E002C010
:10025000220F331F4A95E2F7FC01208300008091B2
:100260000801833030F4809108018F5F809308018A
:1002700002C0109208018091050190910601892B1E
:1002800049F0809105019091060101979093060134
:10029000809305010000DF91CF91FF91EF919F9135
:1002A0008F915F914F913F912F910F9000925F003E
:1002B0000F901F901895CF93DF9300D000D01F921E
:1002C000CDB7DEB78D838D81482F50E028EE33E027
:1002D000429FC001439F900D529F900D11249A831D
:1002E000898380E48B838B81282F30E089819A81F8
:1002F000B9010E94AB01CB018C838C810F900F90D0
:100300000F900F900F90DF91CF910895CF93DF93CF
:1003100000D0CDB7DEB79A838983000000000F902C
:100320000F90DF91CF910895CF93DF931F92CDB7B8
:10033000DEB7898389818093010100000F90DF91EE
:10034000CF910895CF93DF93CDB7DEB780910101B0
:10035000DF91CF910895AA1BBB1B51E107C0AA1FD3
:10036000BB1FA617B70710F0A61BB70B881F991F56
:100370005A95A9F780959095BC01CD010895A29F4B
:10038000B001B39FC001A39F700D811D1124911D69
:10039000B29F700D811D1124911D0895F894FFCF17
:00000001FF
